:100000000C9434000C9461000C943E000C943E005F
:100010000C943E000C943E000C943E000C943E0068
:100020000C943E000C943E000C943E000C94760020
:100030000C943E000C943E000C943E000C943E0048
:100040000C943E000C943E000C943E000C943E0038
:100050000C943E000C943E000C943E000C943E0028
:100060000C943E000C943E0011241FBECFEFD8E04C
:10007000DEBFCDBF0E94A8000C94D1000C940000FC
:100080001F931091C00015FFFCCF4093C6001F9135
:1000900008952FB62F92653090F06D3028F44EE21F
:1000A00026FC089540E208956D3128F44DE226FCC7
:1000B000089540E208956D3110F440E2089547E25A
:1000C00008952D9A603021F0E4DF473209F0D8DF3F
:1000D00066270F9309B1047004300F9111F0E89472
:1000E00001C0689423D02CD005D018956F3F09F03B
:1000F000639518950F931F9308E119E60093890003
:10010000109388001BE0109381001F910F910895B8
:100110000F931F9300E81BE0009380001093810071
:1001200002E000936F001F910F9108950F9300E07C
:100130000093810000938500009384000F9108953F
:100140000F9300E000938500009384000F910895C1
:1001500000E00093C50007E60093C40000E20093AE
:10016000C00006E00093C20008E10093C10000E86F
:1001700001E00DBB01E00093690004E00BB90BEF57
:100180000AB908E10093C100259AC2DFCFDF60E021
:1001900070E080E0002411241394E8947894AADF9E
:0601A000FFCFF894FFCF31
:00000001FF
